:100000000C9462000C948A000C948A000C948A0070
:100010000C948A000C948A000C948A000C948A0038
:100020000C948A000C948A000C948A000C948A0028
:100030000C948A000C948A000C948A000C948A0018
:100040000C947A050C948A000C9448050C942205B3
:100050000C948A000C948A000C948A000C948A00F8
:100060000C948A000C948A000000000024002700F1
:100070002A0000000000250028002B0000000008D6
:10008000000201000003040700000000000000005F
:1000900000000000230026002900040404040404D6
:1000A0000404020202020202030303030303010227
:1000B00004081020408001020408102001020408F6
:1000C0001020090611241FBECFEFD8E0DEBFCDBF40
:1000D00011E0A0E0B1E0E0EBF4E102C005900D9288
:1000E000AA3CB107D9F722E0AAECB1E001C01D9209
:1000F000AC38B207E1F710E0C2E6D0E004C02197C7
:10010000FE010E94500AC136D107C9F70E9453066A
:100110000C94560A0C940000AF92BF92CF92DF92DB
:10012000EF92FF920F931F93CF93DF936C017B01AC
:100130008B01040F151FEB015E01AE18BF08C0173D
:10014000D10759F06991D601ED91FC910190F081B0
:10015000E02DC6010995892B79F7C501DF91CF9173
:100160001F910F91FF90EF90DF90CF90BF90AF90D5
:100170000895FC01538D448D252F30E0842F90E0AD
:10018000821B930B541710F0CF9608950197089592
:10019000FC01918D828D981761F0A28DAE0FBF2F5B
:1001A000B11D5D968C91928D9F5F9F73928F90E0B1
:1001B00008958FEF9FEF0895FC01918D828D981720
:1001C00031F0828DE80FF11D858D90E008958FEF5D
:1001D0009FEF0895FC01918D228D892F90E0805C26
:1001E0009F4F821B91098F739927089587ED91E0A6
:1001F0000E94EA0021E0892B09F420E0822F089573
:1002000080E090E0892B29F00E94F60081110C9487
:1002100000000895FC01A48DA80FB92FB11DA35AA9
:10022000BF4F2C91848D90E001968F739927848F16
:10023000A689B7892C93A089B1898C918370806439
:100240008C93938D848D981306C00288F389E02DDA
:1002500080818F7D80830895EF92FF920F931F938B
:10026000CF93DF93EC0181E0888F9B8D8C8D981369
:100270001AC0E889F989808185FF15C09FB7F89475
:10028000EE89FF896083E889F989808183708064C1
:1002900080839FBF81E090E0DF91CF911F910F910C
:1002A000FF90EF900895F62E0B8D10E00F5F1F4F1B
:1002B0000F731127E02E8C8D8E110CC00FB607FC2A
:1002C000FACFE889F989808185FFF5CFCE010E94B8
:1002D0000A01F1CFEB8DEC0FFD2FF11DE35AFF4F1B
:1002E000F0829FB7F8940B8FEA89FB898081806246
:1002F000CFCFCF93DF93EC01888D8823B9F0AA8903
:10030000BB89E889F9898C9185FD03C0808186FDD0
:100310000DC00FB607FCF7CF8C9185FFF2CF80811F
:1003200085FFEDCFCE010E940A01E9CFDF91CF9189
:10033000089590E0FC01E458FF4F2491FC01E25540
:10034000FF4F3491FC01E656FF4FE491EE23C9F0D4
:10035000222339F0233001F1A8F4213019F12230A1
:1003600029F1F0E0EE0FFF1FEE58FF4FA591B49179
:100370008FB7F894EC91611126C030953E233C93E1
:100380008FBF08952730A9F02830C9F0243049F7ED
:10039000809180008F7D03C0809180008F77809353
:1003A0008000DFCF84B58F7784BDDBCF84B58F7DB0
:1003B000FBCF8091B0008F778093B000D2CF809137
:1003C000B0008F7DF9CF3E2BDACFCF93DF9390E053
:1003D000FC01E255FF4F249186569F4FFC0184910A
:1003E0008823D1F090E0880F991FFC01E859FF4F56
:1003F000A591B491FC01EE58FF4FC591D4916111C4
:100400000EC09FB7F8948C91E22FE0958E238C93C9
:100410002881E223E8839FBFDF91CF9108958FB7B2
:10042000F894EC91E22BEC938FBFF6CF3FB7F894A2
:100430008091CF019091D001A091D101B091D201D2
:1004400026B5A89B05C02F3F19F00196A11DB11D2F
:100450003FBFBA2FA92F982F8827BC01CD01620F6B
:10046000711D811D911D42E0660F771F881F991F26
:100470004A95D1F708958F929F92AF92BF92CF92F3
:10048000DF92EF92FF924B015C010E9416026B011A
:100490007C010E9416026C197D098E099F09683E35
:1004A000734081059105A8F321E0821A9108A10803
:1004B000B10888EEC80E83E0D81EE11CF11C81143F
:1004C0009104A104B10429F7FF90EF90DF90CF9041
:1004D000BF90AF909F908F900895089590E080E036
:1004E0000895FB0101900020E9F73197AF01461B09
:1004F000570BDC01ED91FC910280F381E02D099412
:100500008F929F92AF92BF92EF92FF920F931F93A1
:10051000CF93DF93CDB7DEB7A1970FB6F894DEBFC8
:100520000FBECDBF7C01FA01CB0119A2223008F425
:100530002AE08E010F5D1F4F822E912CB12CA12C31
:10054000BF01A50194010E942E0AF901CA016A3077
:100550000CF5605DD8016E938D01232B242B252B88
:1005600079F790E080E0109721F0BD01C7010E946B
:100570007102A1960FB6F894DEBF0FBECDBFDF911A
:10058000CF911F910F91FF90EF90BF90AF909F90F0
:100590008F900895695CDECFCF93DF93BC0187ED28
:1005A00091E00E947102EC016EE171E087ED91E053
:1005B0000E9471028C0F9D1FDF91CF9108952F92A1
:1005C0003F924F925F926F927F928F929F92AF92E3
:1005D000BF92CF92DF92EF92FF921F93CF93DF9360
:1005E000EC016A017B01722EAB019601CB01B601D1
:1005F0000E94290A61E271E0811126C0460157017B
:10060000E894B7F82FEF3FEF4FE75FE7C501B4017C
:100610000E94290A81110CC02FEF3FEF4FE75FE7DF
:10062000C501B4010E945F0865E271E0181664F02C
:100630002FEF3FEF4FE75FE4C701B6010E94B70914
:100640001816B4F469E271E0CE01DF91CF911F91E9
:10065000FF90EF90DF90CF90BF90AF909F908F90E2
:100660007F906F905F904F903F902F900C9471020D
:100670002FEF3FEF4FE75FECC701B6010E945F0825
:1006800087FDE0CF20E030E0A901C701B6010E945C
:100690005F08312C212C87FF0DC0E881F981019082
:1006A000F081E02D6DE2CE0109951C01F7FAF0947E
:1006B000F7F8F09410E060E070E080E09FE37116DE
:1006C00041F020E030E040E251E40E9464081F5F06
:1006D000F6CFA70196010E94F3072B013C010E946F
:1006E000D6084B015C012AE0BC01A401CE010E94A6
:1006F00080027C01E20CF31C1123E1F1C501B4017D
:100700000E9405099B01AC01C301B2010E94F207DE
:100710004B015C01E881F9810190F081E02D6EE2EE
:10072000CE010995E80EF91E115020F120E030E0CD
:1007300040E251E4C501B4010E94BC092B013C0117
:100740000E94D6084B01B12CA12C2AE0B501A401CE
:10075000CE010E948002E80EF91EC501B4010E947C
:1007600005099B01AC01C301B2010E94F2074B01D4
:100770005C01DACFC701DF91CF911F91FF90EF901D
:10078000DF90CF90BF90AF909F908F907F906F90B1
:100790005F904F903F902F900895CF93DF93EC019F
:1007A00060E08E810E94990161E08E810E94990132
:1007B00060E08E810E9499018BE891E00197F1F74A
:1007C000DF91CF910895CF92DF92EF92FF920F9336
:1007D0001F93CF93DF936C017C0187E0E80EF11C3F
:1007E000D0E0C0E0062F10E0B8010C2E02C07595D5
:1007F00067950A94E2F76170F70181917F010E9489
:1008000099012196C430D10579F7C601DF91CF91C6
:100810001F910F91FF90EF90DF90CF900C94CD033C
:10082000CF92DF92EF92FF920F931F93CF93DF93BC
:10083000EC01F62E642F8C810E9499018D818F3FEF
:1008400019F060E00E9499010F2D10E08F8584FF60
:1008500025C06E0187E0C80ED11CF12CE12CB80137
:100860000E2C02C0759567950A94E2F76170F60147
:1008700081916F010E949901FFEFEF1AFF0A88E052
:10088000E816F10461F7CE01DF91CF911F910F912E
:10089000FF90EF90DF90CF900C94CD03B80184E0EF
:1008A000759567958A95E1F7CE010E94E3036F2D58
:1008B000CE01DF91CF911F910F91FF90EF90DF90CC
:1008C000CF900C94E30340E0682F84E792E00C940F
:1008D0001004CF93DF93823029F4909183029860C3
:1008E00090938302809387021092880280E4809321
:1008F000890280E180938A0280E580938B0261E027
:10090000809178020E94E501809179028F3F19F071
:1009100061E00E94E50161E080917A020E94E501B8
:10092000C4E7D2E09E01245732408091830284FDC7
:100930000BC084E090E021962817390744F461E069
:100940008E810E94E501EECF88E090E0F4CF8BE34A
:100950009DE00197F1F760E0809178020E94990193
:1009600060E080917A020E949901809179028F3F24
:1009700019F060E00E9499018091830284FD39C0E2
:1009800063E084E792E00E94E303CBE4D6E4CE0187
:100990000197F1F763E084E792E00E94E303219777
:1009A000F1F763E084E792E00E94E30383E592E0DD
:1009B0000197F1F762E084E792E00E94E3038091FF
:1009C000830280620E94630484E0809384028CE04E
:1009D0000E94630481E00E9463048BE39FE101971E
:1009E000F1F782E08093850286E0DF91CF910C944D
:1009F000630480620E9463048BE496E40197F1F73C
:100A00008091830280620E94630483E592E00197F3
:100A1000F1F78091830280620E946304D0CFE1E00D
:100A2000809187028111E0E0E195F0E0EC58FD4F04
:100A3000848980680C94630441E00E94100481E082
:100A400090E008951F920F920FB60F9211242F93EA
:100A50003F934F935F936F937F938F939F93AF9346
:100A6000BF93EF93FF9387ED91E00E940A01FF91FE
:100A7000EF91BF91AF919F918F917F916F915F9116
:100A80004F913F912F910F900FBE0F901F9018958F
:100A90001F920F920FB60F9211242F938F939F9353
:100AA000EF93FF93E091E701F091E8018081E091FD
:100AB000ED01F091EE0182FD1BC090818091F0016B
:100AC0008F5F8F732091F101821741F0E091F00167
:100AD000F0E0E952FE4F958F8093F001FF91EF9186
:100AE0009F918F912F910F900FBE0F901F9018958F
:100AF0008081F4CF1F920F920FB60F9211242F9383
:100B00003F938F939F93AF93BF938091CB0190912D
:100B1000CC01A091CD01B091CE013091CA0123E06A
:100B2000230F2D3758F50196A11DB11D2093CA0141
:100B30008093CB019093CC01A093CD01B093CE01D3
:100B40008091CF019091D001A091D101B091D201BB
:100B50000196A11DB11D8093CF019093D001A09368
:100B6000D101B093D201BF91AF919F918F913F91ED
:100B70002F910F900FBE0F901F90189526E8230F0E
:100B80000296A11DB11DD2CFCF92DF92EF92FF92BC
:100B90000F931F93E82FF92F05C001501109210968
:100BA000310961F1908196239417B9F305C0015082
:100BB00011092109310911F1908196239413F7CF7E
:100BC000C12CD12CE12CF12C0AC08FEFC81AD80A05
:100BD000E80AF80A0C151D052E053F0579F08081FD
:100BE0008623841791F36C2D7D2D8E2D9F2D1F91C3
:100BF0000F91FF90EF90DF90CF90089560E070E04C
:100C000080E090E01F910F91FF90EF90DF90CF90E8
:100C10000895E7EDF1E01382128288EE93E0A0E000
:100C2000B0E084839583A683B78384E091E09183C9
:100C3000808385EC90E09587848784EC90E09787AB
:100C4000868780EC90E0918B808B81EC90E0938B99
:100C5000828B82EC90E0958B848B86EC90E0978B76
:100C6000868B118E128E138E148EE4E7F2E01382BF
:100C7000128286E191E0918380838CE084838FEF00
:100C800085838BE086838EE087838FE0808780E199
:100C9000818781E1828713861486158616861786DA
:100CA00081E00C946904789484B5826084BD84B535
:100CB000816084BD85B5826085BD85B5816085BD57
:100CC00080916E00816080936E001092810080910F
:100CD0008100826080938100809181008160809397
:100CE0008100809180008160809380008091B100BC
:100CF00084608093B1008091B00081608093B000E7
:100D000080917A00846080937A0080917A0082607A
:100D100080937A0080917A00816080937A0080913C
:100D20007A00806880937A001092C10082E00E946D
:100D300069046DE271E084E792E00E94710260ED67
:100D400077E080E090E00E943B0281E00E94630433
:100D50008BE39FE10197F1F761E089E00E94E501F3
:100D600060E08AE00E94E50161E082E00E94E50126
:100D700061E083E00E94E50161E084E00E94E5011A
:100D800061E085E00E94E501E091E701F091E80172
:100D900082E08083E091E301F091E4011082E09130
:100DA000E501F091E6018FEC80831092EF01E09174
:100DB000EB01F091EC0186E08083E091E901F09194
:100DC000EA01808180618083E091E901F091EA018C
:100DD000808188608083E091E901F091EA0180815F
:100DE00080688083E091E901F091EA0180818F7D44
:100DF0008083C3E0D0E093E2A92EB12C24EA222E16
:100E000020E0322E412C512C612C31E4732E40E035
:100E1000842E40E0942E60E089E00E949901CE018A
:100E20000197F1F761E089E00E949901C5010197FE
:100E3000F1F760E089E00E949901E8EBF0E064914D
:100E4000F1018491E82FF0E0EE0FFF1FE057FF4F14
:100E50008591949100E412E42FE030E0462F0E9447
:100E6000C4054092D3015092D4016092D501709292
:100E7000D6016CE371E087ED91E00E947102409130
:100E8000D3015091D4016091D5017091D60122E037
:100E900087ED91E00E94DF0287E491E00E94CC029E
:100EA0000E940F056BE471E084E792E00E947102FA
:100EB0004091D3015091D4016091D5017091D60138
:100EC00022E084E792E00E94DF0262E571E084E7BD
:100ED00092E00E94710268EE73E080E090E00E9470
:100EE0003B0260E082E00E94990160E083E00E94A2
:100EF000990160E084E00E94990160E085E00E9431
:100F00009901C090D301D090D401E090D501F09028
:100F1000D60120E030E040EF51E4C701B6010E9465
:100F2000B709181614F561E082E00E9499018CE57A
:100F300091E00E94CC020E940F0569E671E084E70F
:100F400092E00E94710268EC70E080E090E00E9404
:100F50003B028114910409F45ECF0E94F6008823BD
:100F600009F459CF0E94000056CF20E030E040E75E
:100F700051E4C701B6010E94B7091816BCF420E07D
:100F800030E040EF51E4C701B6010E945F08181637
:100F90006CF061E083E00E9499018DE791E00E948E
:100FA000CC020E940F056DE871E0C9CF20E030E06F
:100FB00040E751E4C701B6010E945F0818160CF41F
:100FC000C2CF61E084E00E94990161E085E00E9467
:100FD000990184EA91E00E94CC020E940F0563EB24
:100FE00071E0ADCF5058BB27AA270E940A080C9485
:100FF0007D090E946F0938F00E94760920F039F4CB
:101000009F3F19F426F40C946C090EF4E095E7FB6D
:101010000C946609E92F0E948E0958F3BA176207EB
:1010200073078407950720F079F4A6F50C94B009AE
:101030000EF4E0950B2EBA2FA02D0B01B9019001F3
:101040000C01CA01A0011124FF27591B99F0593F37
:1010500050F4503E68F11A16F040A22F232F342F7F
:101060004427585FF3CF469537952795A795F040CD
:101070005395C9F77EF41F16BA0B620B730B840BE2
:10108000BAF09150A1F0FF0FBB1F661F771F881F9A
:10109000C2F70EC0BA0F621F731F841F48F48795F2
:1010A00077956795B795F7959E3F08F0B0CF9395E4
:1010B000880F08F09927EE0F9795879508950E945D
:1010C000420908F481E008950E9478080C947D0993
:1010D0000E94760958F00E946F0940F029F45F3FA2
:1010E00029F00C94660951110C94B1090C946C0907
:1010F0000E948E0968F39923B1F3552391F3951B50
:10110000550BBB27AA2762177307840738F09F5F28
:101110005F4F220F331F441FAA1FA9F335D00E2E95
:101120003AF0E0E832D091505040E695001CCAF702
:101130002BD0FE2F29D0660F771F881FBB1F2617C5
:1011400037074807AB07B0E809F0BB0B802DBF019C
:10115000FF2793585F4F3AF09E3F510578F00C946B
:1011600066090C94B1095F3FE4F3983ED4F3869589
:1011700077956795B795F7959F5FC9F7880F911D8C
:101180009695879597F90895E1E0660F771F881F78
:10119000BB1F621773078407BA0720F0621B730B2B
:1011A000840BBA0BEE1F88F7E09508950E9496090C
:1011B00088F09F5798F0B92F9927B751B0F0E1F018
:1011C000660F771F881F991F1AF0BA95C9F714C0C8
:1011D000B13091F00E94B009B1E008950C94B009CB
:1011E000672F782F8827B85F39F0B93FCCF3869501
:1011F00077956795B395D9F73EF49095809570955E
:1012000061957F4F8F4F9F4F0895E89409C097FBDA
:101210003EF490958095709561957F4F8F4F9F4FCD
:101220009923A9F0F92F96E9BB279395F695879511
:1012300077956795B795F111F8CFFAF4BB0F11F4D4
:1012400060FF1BC06F5F7F4F8F4F9F4F16C088237B
:1012500011F096E911C0772321F09EE8872F762FB1
:1012600005C0662371F096E8862F70E060E02AF0F2
:101270009A95660F771F881FDAF7880F96958795DE
:1012800097F90895990F0008550FAA0BE0E8FEEFB3
:1012900016161706E807F907C0F012161306E4073A
:1012A000F50798F0621B730B840B950B39F40A2633
:1012B00061F0232B242B252B21F408950A2609F411
:1012C000A140A6958FEF811D811D089597F99F6715
:1012D00080E870E060E008959FEF80EC08950024BE
:1012E0000A941616170618060906089500240A948B
:1012F00012161306140605060895092E0394000C11
:1013000011F4882352F0BB0F40F4BF2B11F460FF9F
:1013100004C06F5F7F4F8F4F9F4F089557FD9058C8
:10132000440F551F59F05F3F71F04795880F97FBA9
:10133000991F61F09F3F79F0879508951216130663
:101340001406551FF2CF4695F1DF08C01616170692
:101350001806991FF1CF86957105610508940895C7
:10136000E894BB2766277727CB0197F908950E9459
:10137000420908F48FEF08950E94CF090C947D096B
:101380000E946F0938F00E94760920F0952311F031
:101390000C9466090C946C0911240C94B1090E94F8
:1013A0008E0970F3959FC1F3950F50E0551F629F12
:1013B000F001729FBB27F00DB11D639FAA27F00DAE
:1013C000B11DAA1F649F6627B00DA11D661F829FD5
:1013D0002227B00DA11D621F739FB00DA11D621FBA
:1013E000839FA00D611D221F749F3327A00D611DD7
:1013F000231F849F600D211D822F762F6A2F1124B9
:101400009F5750409AF0F1F088234AF0EE0FFF1FEB
:10141000BB1F661F771F881F91505040A9F79E3F42
:10142000510580F00C9466090C94B1095F3FE4F318
:10143000983ED4F3869577956795B795F795E79598
:101440009F5FC1F7FE2B880F911D9695879597F9A1
:1014500008950E944209880B990B0895A1E21A2E63
:10146000AA1BBB1BFD010DC0AA1FBB1FEE1FFF1F48
:10147000A217B307E407F50720F0A21BB30BE40B98
:10148000F50B661F771F881F991F1A9469F76095DF
:101490007095809590959B01AC01BD01CF01089599
:1014A000EE0FFF1F0590F491E02D0994F894FFCF03
:1014B000000000002C018C00B9007901EA00C8008E
:1014C000DC00000000001C058C006E026D020D0A9D
:1014D000006E616E00696E66006F76660050617224
:1014E0006B696E672053797374656D00446973741A
:1014F000616E63653A200020636D00446973743A3D
:101500002000636D202020202020200053544154CF
:1015100055533A2053414645005354415455533A8C
:1015200020534146452020202020202000535441B4
:101530005455533A205741524E494E470053544157
:101540005455533A205741524E494E4720202020AF
:10155000202020005354415455533A2044414E47D3
:101560004552005354415455533A2044414E474547
:0A157000522020202020202000003F
:00000001FF
